:0300000002004CAF
:200008000000E2FBEAF2802C0000E0FBEAF08024E6B50202EBF62200E2B50202EBF22200DE
:20002800E0B50202EBF02230F6E0A88220F5D3EAC6F582228B822230F6E6A88220F5D980EE
:01004800CFE8
:0900A50075080775090002004905
:0300490002013081
:2000AE00AE82AF838E048F051EBEFF011FEC4D6004000080EF22AE82AF838E048F051EBE1D
:2000CE00FF011FEC4D60109003E8C007C0061200AED006D00780E32275B3FF75B5FF43B409
:2000EE0001D2A0228582B09000021200AEC2A09000051200AED2A09000020200AE850890CC
:20010E00E509700FE5082508F50874E0B5081275090122E508C313F5087407B50803750910
:16012E0000221200E67582AA1200F212010B9000961200C480EF73
:06007B00E478FFF6D8FD59
:200059007900E94400601B7A009001487801759200E493F2A308B800020592D9F4DAF27520
:0200790092FFF4
:200081007800E84400600A7901759200E4F309D8FC7800E84400600C7900900001E4F0A38B
:0400A100D8FCD9FAB4
:0D004C00758109120144E58260030200493C
:04014400758200229E
:00000001FF
