:0300000002004CAF
:200008000000E2FBEAF2802C0000E0FBEAF08024E6B50202EBF62200E2B50202EBF22200DE
:20002800E0B50202EBF02230F6E0A88220F5D3EAC6F582228B822230F6E6A88220F5D980EE
:01004800CFE8
:0900A50075080775090002004905
:0300490002013E73
:2000AE00AE82AF838E048F051EBEFF011FEC4D600A000000000000000080E922AE82AF831F
:2000CE008E048F051EBEFF011FEC4D60109003E8C007C0061200AED006D00780E32275B326
:2000EE00FF75B5FF43B401D2A022AF828FB0900002C0071200AEC2A09000051200AED2A08C
:20010E009000021200AED0078F9022850890E509700FE5082508F50874E0B5081275090124
:20012E0022E508C313F5087407B50803750900221200EC7582AA1200F89000961200CA1237
:0A014E0001199000961200CA80E922
:06007B00E478FFF6D8FD59
:200059007900E94400601B7A0090015C7801759200E493F2A308B800020592D9F4DAF2750C
:0200790092FFF4
:200081007800E84400600A7901759200E4F309D8FC7800E84400600C7900900001E4F0A38B
:0400A100D8FCD9FAB4
:0D004C00758109120158E582600302004928
:04015800758200228A
:00000001FF
