:0300000002004CAF
:200008000000E2FBEAF2802C0000E0FBEAF08024E6B50202EBF62200E2B50202EBF22200DE
:20002800E0B50202EBF02230F6E0A88220F5D3EAC6F582228B822230F6E6A88220F5D980EE
:01004800CFE8
:0300A5000200490D
:030049000200CAE8
:2000A800AE82AF838E048F051EBEFF011FEC4D60107C587D02001CBCFF011DEC4D70F680A5
:2000C800E32290E601E053E0FCF090E604E053E0FCF075B3FF75900075900F9003E8120057
:2000E800A890E607E020E0127590AA90E607E030E0F99000321200A880E790E607E020E18B
:180108001275905590E607E030E1F99000321200A880CE75903380C9C1
:06007B00E478FFF6D8FD59
:200059007900E94400601B7A009001247801759200E493F2A308B800020592D9F4DAF27544
:0200790092FFF4
:200081007800E84400600A7901759200E4F309D8FC7800E84400600C7900900001E4F0A38B
:0400A100D8FCD9FAB4
:0D004C00758107120120E582600302004962
:0401200075820022C2
:00000001FF
